{
  "contractName": "DoggyContract",
  "abi": [
    {
      "anonymous": false,
      "inputs": [
        {
          "indexed": true,
          "internalType": "address",
          "name": "owner",
          "type": "address"
        },
        {
          "indexed": true,
          "internalType": "address",
          "name": "approved",
          "type": "address"
        },
        {
          "indexed": true,
          "internalType": "uint256",
          "name": "tokenId",
          "type": "uint256"
        }
      ],
      "name": "Approval",
      "type": "event"
    },
    {
      "anonymous": false,
      "inputs": [
        {
          "indexed": true,
          "internalType": "address",
          "name": "owner",
          "type": "address"
        },
        {
          "indexed": true,
          "internalType": "address",
          "name": "operator",
          "type": "address"
        },
        {
          "indexed": false,
          "internalType": "bool",
          "name": "approved",
          "type": "bool"
        }
      ],
      "name": "ApprovalForAll",
      "type": "event"
    },
    {
      "anonymous": false,
      "inputs": [
        {
          "indexed": false,
          "internalType": "address",
          "name": "owner",
          "type": "address"
        },
        {
          "indexed": false,
          "internalType": "uint256",
          "name": "doggyId",
          "type": "uint256"
        },
        {
          "indexed": false,
          "internalType": "uint256",
          "name": "mumId",
          "type": "uint256"
        },
        {
          "indexed": false,
          "internalType": "uint256",
          "name": "dadId",
          "type": "uint256"
        },
        {
          "indexed": false,
          "internalType": "uint256",
          "name": "genes",
          "type": "uint256"
        }
      ],
      "name": "Birth",
      "type": "event"
    },
    {
      "anonymous": false,
      "inputs": [
        {
          "indexed": true,
          "internalType": "address",
          "name": "previousOwner",
          "type": "address"
        }
      ],
      "name": "OwnershipRenounced",
      "type": "event"
    },
    {
      "anonymous": false,
      "inputs": [
        {
          "indexed": true,
          "internalType": "address",
          "name": "previousOwner",
          "type": "address"
        },
        {
          "indexed": true,
          "internalType": "address",
          "name": "newOwner",
          "type": "address"
        }
      ],
      "name": "OwnershipTransferred",
      "type": "event"
    },
    {
      "anonymous": false,
      "inputs": [
        {
          "indexed": true,
          "internalType": "address",
          "name": "from",
          "type": "address"
        },
        {
          "indexed": true,
          "internalType": "address",
          "name": "to",
          "type": "address"
        },
        {
          "indexed": true,
          "internalType": "uint256",
          "name": "tokenId",
          "type": "uint256"
        }
      ],
      "name": "Transfer",
      "type": "event"
    },
    {
      "constant": true,
      "inputs": [
        {
          "internalType": "uint256",
          "name": "",
          "type": "uint256"
        }
      ],
      "name": "doggyIndexToApproved",
      "outputs": [
        {
          "internalType": "address",
          "name": "",
          "type": "address"
        }
      ],
      "payable": false,
      "stateMutability": "view",
      "type": "function"
    },
    {
      "constant": true,
      "inputs": [],
      "name": "owner",
      "outputs": [
        {
          "internalType": "address",
          "name": "",
          "type": "address"
        }
      ],
      "payable": false,
      "stateMutability": "view",
      "type": "function"
    },
    {
      "constant": false,
      "inputs": [],
      "name": "renounceOwnership",
      "outputs": [],
      "payable": false,
      "stateMutability": "nonpayable",
      "type": "function"
    },
    {
      "constant": true,
      "inputs": [],
      "name": "tokenName",
      "outputs": [
        {
          "internalType": "string",
          "name": "",
          "type": "string"
        }
      ],
      "payable": false,
      "stateMutability": "view",
      "type": "function"
    },
    {
      "constant": true,
      "inputs": [],
      "name": "tokenSymbol",
      "outputs": [
        {
          "internalType": "string",
          "name": "",
          "type": "string"
        }
      ],
      "payable": false,
      "stateMutability": "view",
      "type": "function"
    },
    {
      "constant": false,
      "inputs": [
        {
          "internalType": "address",
          "name": "_newOwner",
          "type": "address"
        }
      ],
      "name": "transferOwnership",
      "outputs": [],
      "payable": false,
      "stateMutability": "nonpayable",
      "type": "function"
    },
    {
      "constant": true,
      "inputs": [
        {
          "internalType": "bytes4",
          "name": "_interfaceId",
          "type": "bytes4"
        }
      ],
      "name": "supportsInterface",
      "outputs": [
        {
          "internalType": "bool",
          "name": "",
          "type": "bool"
        }
      ],
      "payable": false,
      "stateMutability": "pure",
      "type": "function"
    },
    {
      "constant": false,
      "inputs": [
        {
          "internalType": "uint256",
          "name": "_dadId",
          "type": "uint256"
        },
        {
          "internalType": "uint256",
          "name": "_mumId",
          "type": "uint256"
        }
      ],
      "name": "breed",
      "outputs": [
        {
          "internalType": "uint256",
          "name": "",
          "type": "uint256"
        }
      ],
      "payable": false,
      "stateMutability": "nonpayable",
      "type": "function"
    },
    {
      "constant": false,
      "inputs": [
        {
          "internalType": "uint256",
          "name": "_genes",
          "type": "uint256"
        }
      ],
      "name": "createDoggyGen0",
      "outputs": [
        {
          "internalType": "uint256",
          "name": "",
          "type": "uint256"
        }
      ],
      "payable": false,
      "stateMutability": "nonpayable",
      "type": "function"
    },
    {
      "constant": true,
      "inputs": [],
      "name": "countDoggies",
      "outputs": [
        {
          "internalType": "uint256",
          "name": "",
          "type": "uint256"
        }
      ],
      "payable": false,
      "stateMutability": "view",
      "type": "function"
    },
    {
      "constant": true,
      "inputs": [
        {
          "internalType": "address",
          "name": "owner",
          "type": "address"
        }
      ],
      "name": "balanceOf",
      "outputs": [
        {
          "internalType": "uint256",
          "name": "balance",
          "type": "uint256"
        }
      ],
      "payable": false,
      "stateMutability": "view",
      "type": "function"
    },
    {
      "constant": true,
      "inputs": [],
      "name": "totalSupply",
      "outputs": [
        {
          "internalType": "uint256",
          "name": "total",
          "type": "uint256"
        }
      ],
      "payable": false,
      "stateMutability": "view",
      "type": "function"
    },
    {
      "constant": true,
      "inputs": [],
      "name": "name",
      "outputs": [
        {
          "internalType": "string",
          "name": "",
          "type": "string"
        }
      ],
      "payable": false,
      "stateMutability": "view",
      "type": "function"
    },
    {
      "constant": true,
      "inputs": [],
      "name": "symbol",
      "outputs": [
        {
          "internalType": "string",
          "name": "",
          "type": "string"
        }
      ],
      "payable": false,
      "stateMutability": "view",
      "type": "function"
    },
    {
      "constant": true,
      "inputs": [
        {
          "internalType": "uint256",
          "name": "tokenId",
          "type": "uint256"
        }
      ],
      "name": "ownerOf",
      "outputs": [
        {
          "internalType": "address",
          "name": "owner",
          "type": "address"
        }
      ],
      "payable": false,
      "stateMutability": "view",
      "type": "function"
    },
    {
      "constant": true,
      "inputs": [
        {
          "internalType": "uint256",
          "name": "tokenId",
          "type": "uint256"
        }
      ],
      "name": "getDoggy",
      "outputs": [
        {
          "internalType": "uint256",
          "name": "",
          "type": "uint256"
        },
        {
          "internalType": "uint64",
          "name": "",
          "type": "uint64"
        },
        {
          "internalType": "uint32",
          "name": "",
          "type": "uint32"
        },
        {
          "internalType": "uint32",
          "name": "",
          "type": "uint32"
        },
        {
          "internalType": "uint16",
          "name": "",
          "type": "uint16"
        },
        {
          "internalType": "address",
          "name": "owner",
          "type": "address"
        }
      ],
      "payable": false,
      "stateMutability": "view",
      "type": "function"
    },
    {
      "constant": false,
      "inputs": [
        {
          "internalType": "address",
          "name": "to",
          "type": "address"
        },
        {
          "internalType": "uint256",
          "name": "tokenId",
          "type": "uint256"
        }
      ],
      "name": "transfer",
      "outputs": [],
      "payable": false,
      "stateMutability": "nonpayable",
      "type": "function"
    },
    {
      "constant": false,
      "inputs": [
        {
          "internalType": "address",
          "name": "from",
          "type": "address"
        },
        {
          "internalType": "address",
          "name": "to",
          "type": "address"
        },
        {
          "internalType": "uint256",
          "name": "tokenId",
          "type": "uint256"
        }
      ],
      "name": "transferFrom",
      "outputs": [],
      "payable": false,
      "stateMutability": "nonpayable",
      "type": "function"
    },
    {
      "constant": false,
      "inputs": [
        {
          "internalType": "address",
          "name": "from",
          "type": "address"
        },
        {
          "internalType": "address",
          "name": "to",
          "type": "address"
        },
        {
          "internalType": "uint256",
          "name": "tokenId",
          "type": "uint256"
        }
      ],
      "name": "safeTransferFrom",
      "outputs": [],
      "payable": false,
      "stateMutability": "nonpayable",
      "type": "function"
    },
    {
      "constant": false,
      "inputs": [
        {
          "internalType": "address",
          "name": "from",
          "type": "address"
        },
        {
          "internalType": "address",
          "name": "to",
          "type": "address"
        },
        {
          "internalType": "uint256",
          "name": "tokenId",
          "type": "uint256"
        },
        {
          "internalType": "bytes",
          "name": "data",
          "type": "bytes"
        }
      ],
      "name": "safeTransferFrom",
      "outputs": [],
      "payable": false,
      "stateMutability": "nonpayable",
      "type": "function"
    },
    {
      "constant": false,
      "inputs": [
        {
          "internalType": "address",
          "name": "approved",
          "type": "address"
        },
        {
          "internalType": "uint256",
          "name": "tokenId",
          "type": "uint256"
        }
      ],
      "name": "approve",
      "outputs": [],
      "payable": false,
      "stateMutability": "nonpayable",
      "type": "function"
    },
    {
      "constant": false,
      "inputs": [
        {
          "internalType": "address",
          "name": "operator",
          "type": "address"
        },
        {
          "internalType": "bool",
          "name": "approved",
          "type": "bool"
        }
      ],
      "name": "setApprovalForAll",
      "outputs": [],
      "payable": false,
      "stateMutability": "nonpayable",
      "type": "function"
    },
    {
      "constant": true,
      "inputs": [
        {
          "internalType": "uint256",
          "name": "tokenId",
          "type": "uint256"
        }
      ],
      "name": "getApproved",
      "outputs": [
        {
          "internalType": "address",
          "name": "",
          "type": "address"
        }
      ],
      "payable": false,
      "stateMutability": "view",
      "type": "function"
    },
    {
      "constant": true,
      "inputs": [
        {
          "internalType": "address",
          "name": "owner",
          "type": "address"
        },
        {
          "internalType": "address",
          "name": "operator",
          "type": "address"
        }
      ],
      "name": "isApprovedForAll",
      "outputs": [
        {
          "internalType": "bool",
          "name": "",
          "type": "bool"
        }
      ],
      "payable": false,
      "stateMutability": "view",
      "type": "function"
    },
    {
      "constant": true,
      "inputs": [
        {
          "internalType": "address",
          "name": "claimant",
          "type": "address"
        },
        {
          "internalType": "uint256",
          "name": "tokenId",
          "type": "uint256"
        }
      ],
      "name": "_own",
      "outputs": [
        {
          "internalType": "bool",
          "name": "",
          "type": "bool"
        }
      ],
      "payable": false,
      "stateMutability": "view",
      "type": "function"
    }
  ],
  "bytecode": "0x6080604052600a600060146101000a81548163ffffffff021916908363ffffffff160217905550336000806101000a81548173ffffffffffffffffffffffffffffffffffffffff021916908373ffffffffffffffffffffffffffffffffffffffff160217905550612afc806100756000396000f3fe608060405234801561001057600080fd5b50600436106101735760003560e01c8063715018a6116100de578063a9059cbb11610097578063d9ecad7b11610071578063d9ecad7b146109e7578063db58207914610a33578063e985e9c514610aa1578063f2fde38b14610b1d57610173565b8063a9059cbb14610876578063b88d4fde146108c4578063ce335c52146109c957610173565b8063715018a6146106075780637b61c32014610611578063850ed153146106945780638da5cb5b1461075957806395d89b41146107a3578063a22cb4651461082657610173565b806323b872dd1161013057806323b872dd1461037c57806342842e0e146103ea5780635a8ad746146104585780636352211e146104be5780636c02a9311461052c57806370a08231146105af57610173565b806301ffc9a71461017857806306fdde03146101dd578063081812fc14610260578063095ea7b3146102ce5780630c67089b1461031c57806318160ddd1461035e575b600080fd5b6101c36004803603602081101561018e57600080fd5b8101908080357bffffffffffffffffffffffffffffffffffffffffffffffffffffffff19169060200190929190505050610b61565b604051808215151515815260200191505060405180910390f35b6101e5610c01565b6040518080602001828103825283818151815260200191508051906020019080838360005b8381101561022557808201518184015260208101905061020a565b50505050905090810190601f1680156102525780820380516001836020036101000a031916815260200191505b509250505060405180910390f35b61028c6004803603602081101561027657600080fd5b8101908080359060200190929190505050610c3e565b604051808273ffffffffffffffffffffffffffffffffffffffff1673ffffffffffffffffffffffffffffffffffffffff16815260200191505060405180910390f35b61031a600480360360408110156102e457600080fd5b81019080803573ffffffffffffffffffffffffffffffffffffffff16906020019092919080359060200190929190505050610cf5565b005b6103486004803603602081101561033257600080fd5b8101908080359060200190929190505050610e23565b6040518082815260200191505060405180910390f35b610366610ecc565b6040518082815260200191505060405180910390f35b6103e86004803603606081101561039257600080fd5b81019080803573ffffffffffffffffffffffffffffffffffffffff169060200190929190803573ffffffffffffffffffffffffffffffffffffffff16906020019092919080359060200190929190505050610ed9565b005b6104566004803603606081101561040057600080fd5b81019080803573ffffffffffffffffffffffffffffffffffffffff169060200190929190803573ffffffffffffffffffffffffffffffffffffffff16906020019092919080359060200190929190505050611258565b005b6104a46004803603604081101561046e57600080fd5b81019080803573ffffffffffffffffffffffffffffffffffffffff16906020019092919080359060200190929190505050611278565b604051808215151515815260200191505060405180910390f35b6104ea600480360360208110156104d457600080fd5b81019080803590602001909291905050506112e4565b604051808273ffffffffffffffffffffffffffffffffffffffff1673ffffffffffffffffffffffffffffffffffffffff16815260200191505060405180910390f35b6105346113f6565b6040518080602001828103825283818151815260200191508051906020019080838360005b83811015610574578082015181840152602081019050610559565b50505050905090810190601f1680156105a15780820380516001836020036101000a031916815260200191505b509250505060405180910390f35b6105f1600480360360208110156105c557600080fd5b81019080803573ffffffffffffffffffffffffffffffffffffffff16906020019092919050505061142f565b6040518082815260200191505060405180910390f35b61060f611478565b005b610619611578565b6040518080602001828103825283818151815260200191508051906020019080838360005b8381101561065957808201518184015260208101905061063e565b50505050905090810190601f1680156106865780820380516001836020036101000a031916815260200191505b509250505060405180910390f35b6106c0600480360360208110156106aa57600080fd5b81019080803590602001909291905050506115b1565b604051808781526020018667ffffffffffffffff1667ffffffffffffffff1681526020018563ffffffff1663ffffffff1681526020018463ffffffff1663ffffffff1681526020018361ffff1661ffff1681526020018273ffffffffffffffffffffffffffffffffffffffff1673ffffffffffffffffffffffffffffffffffffffff168152602001965050505050505060405180910390f35b61076161167e565b604051808273ffffffffffffffffffffffffffffffffffffffff1673ffffffffffffffffffffffffffffffffffffffff16815260200191505060405180910390f35b6107ab6116a3565b6040518080602001828103825283818151815260200191508051906020019080838360005b838110156107eb5780820151818401526020810190506107d0565b50505050905090810190601f1680156108185780820380516001836020036101000a031916815260200191505b509250505060405180910390f35b6108746004803603604081101561083c57600080fd5b81019080803573ffffffffffffffffffffffffffffffffffffffff1690602001909291908035151590602001909291905050506116e0565b005b6108c26004803603604081101561088c57600080fd5b81019080803573ffffffffffffffffffffffffffffffffffffffff16906020019092919080359060200190929190505050611727565b005b6109c7600480360360808110156108da57600080fd5b81019080803573ffffffffffffffffffffffffffffffffffffffff169060200190929190803573ffffffffffffffffffffffffffffffffffffffff169060200190929190803590602001909291908035906020019064010000000081111561094157600080fd5b82018360208201111561095357600080fd5b8035906020019184600183028401116401000000008311171561097557600080fd5b91908080601f016020809104026020016040519081016040528093929190818152602001838380828437600081840152601f19601f820116905080830192505050505050509192919290505050611915565b005b6109d1611c96565b6040518082815260200191505060405180910390f35b610a1d600480360360408110156109fd57600080fd5b810190808035906020019092919080359060200190929190505050611ca3565b6040518082815260200191505060405180910390f35b610a5f60048036036020811015610a4957600080fd5b8101908080359060200190929190505050611f49565b604051808273ffffffffffffffffffffffffffffffffffffffff1673ffffffffffffffffffffffffffffffffffffffff16815260200191505060405180910390f35b610b0360048036036040811015610ab757600080fd5b81019080803573ffffffffffffffffffffffffffffffffffffffff169060200190929190803573ffffffffffffffffffffffffffffffffffffffff169060200190929190505050611f7c565b604051808215151515815260200191505060405180910390f35b610b5f60048036036020811015610b3357600080fd5b81019080803573ffffffffffffffffffffffffffffffffffffffff169060200190929190505050612010565b005b60006380ac58cd60e01b7bffffffffffffffffffffffffffffffffffffffffffffffffffffffff1916827bffffffffffffffffffffffffffffffffffffffffffffffffffffffff19161480610bfa57506301ffc9a760e01b7bffffffffffffffffffffffffffffffffffffffffffffffffffffffff1916827bffffffffffffffffffffffffffffffffffffffffffffffffffffffff1916145b9050919050565b60606040518060400160405280600781526020017f446f676769657300000000000000000000000000000000000000000000000000815250905090565b60006001805490508210610cba576040517f08c379a000000000000000000000000000000000000000000000000000000000815260040180806020018281038252601a8152602001807f5468697320746f6b656e20646f6573206e6f742065786973742100000000000081525060200191505060405180910390fd5b6004600083815260200190815260200160002060009054906101000a900473ffffffffffffffffffffffffffffffffffffffff169050919050565b6003600082815260200190815260200160002060009054906101000a900473ffffffffffffffffffffffffffffffffffffffff1673ffffffffffffffffffffffffffffffffffffffff163373ffffffffffffffffffffffffffffffffffffffff161480610dc057506004600082815260200190815260200160002060009054906101000a900473ffffffffffffffffffffffffffffffffffffffff1673ffffffffffffffffffffffffffffffffffffffff163373ffffffffffffffffffffffffffffffffffffffff16145b610e15576040517f08c379a000000000000000000000000000000000000000000000000000000000815260040180806020018281038252602a81526020018061299c602a913960400191505060405180910390fd5b610e1f8282612075565b5050565b60008060009054906101000a900473ffffffffffffffffffffffffffffffffffffffff1673ffffffffffffffffffffffffffffffffffffffff163373ffffffffffffffffffffffffffffffffffffffff1614610e7e57600080fd5b600060149054906101000a900463ffffffff1663ffffffff1660065410610ea457600080fd5b600660008154809291906001019190505550610ec560008060008533612126565b9050919050565b6000600180549050905090565b6003600082815260200190815260200160002060009054906101000a900473ffffffffffffffffffffffffffffffffffffffff1673ffffffffffffffffffffffffffffffffffffffff163373ffffffffffffffffffffffffffffffffffffffff161480610fd3575060011515600560008573ffffffffffffffffffffffffffffffffffffffff1673ffffffffffffffffffffffffffffffffffffffff16815260200190815260200160002060003373ffffffffffffffffffffffffffffffffffffffff1673ffffffffffffffffffffffffffffffffffffffff16815260200190815260200160002060009054906101000a900460ff161515145b8061103c57506004600082815260200190815260200160002060009054906101000a900473ffffffffffffffffffffffffffffffffffffffff1673ffffffffffffffffffffffffffffffffffffffff163373ffffffffffffffffffffffffffffffffffffffff16145b611091576040517f08c379a000000000000000000000000000000000000000000000000000000000815260040180806020018281038252602b8152602001806129c6602b913960400191505060405180910390fd5b6003600082815260200190815260200160002060009054906101000a900473ffffffffffffffffffffffffffffffffffffffff1673ffffffffffffffffffffffffffffffffffffffff168373ffffffffffffffffffffffffffffffffffffffff1614611148576040517f08c379a000000000000000000000000000000000000000000000000000000000815260040180806020018281038252602b815260200180612a3e602b913960400191505060405180910390fd5b600073ffffffffffffffffffffffffffffffffffffffff168273ffffffffffffffffffffffffffffffffffffffff1614156111ce576040517f08c379a0000000000000000000000000000000000000000000000000000000008152600401808060200182810382526033815260200180612a696033913960400191505060405180910390fd5b6001805490508110611248576040517f08c379a000000000000000000000000000000000000000000000000000000000815260040180806020018281038252601a8152602001807f5468697320746f6b656e20646f6573206e6f742065786973742100000000000081525060200191505060405180910390fd5b6112538383836122f0565b505050565b61127383838360405180602001604052806000815250611915565b505050565b60008273ffffffffffffffffffffffffffffffffffffffff166003600084815260200190815260200160002060009054906101000a900473ffffffffffffffffffffffffffffffffffffffff1673ffffffffffffffffffffffffffffffffffffffff1614905092915050565b60008073ffffffffffffffffffffffffffffffffffffffff166003600084815260200190815260200160002060009054906101000a900473ffffffffffffffffffffffffffffffffffffffff1673ffffffffffffffffffffffffffffffffffffffff1614156113bb576040517f08c379a000000000000000000000000000000000000000000000000000000000815260040180806020018281038252601a8152602001807f5468697320746f6b656e20646f6573206e6f742065786973742100000000000081525060200191505060405180910390fd5b6003600083815260200190815260200160002060009054906101000a900473ffffffffffffffffffffffffffffffffffffffff169050919050565b6040518060400160405280600781526020017f446f67676965730000000000000000000000000000000000000000000000000081525081565b6000600260008373ffffffffffffffffffffffffffffffffffffffff1673ffffffffffffffffffffffffffffffffffffffff168152602001908152602001600020549050919050565b6000809054906101000a900473ffffffffffffffffffffffffffffffffffffffff1673ffffffffffffffffffffffffffffffffffffffff163373ffffffffffffffffffffffffffffffffffffffff16146114d157600080fd5b6000809054906101000a900473ffffffffffffffffffffffffffffffffffffffff1673ffffffffffffffffffffffffffffffffffffffff167ff8df31144d9c2f0f6b59d69b8b98abd5459d07f2742c4df920b25aae33c6482060405160405180910390a260008060006101000a81548173ffffffffffffffffffffffffffffffffffffffff021916908373ffffffffffffffffffffffffffffffffffffffff160217905550565b6040518060400160405280600381526020017f444f47000000000000000000000000000000000000000000000000000000000081525081565b6000806000806000806000600188815481106115c957fe5b9060005260206000209060020201905080600001548160010160009054906101000a900467ffffffffffffffff168260010160089054906101000a900463ffffffff1683600101600c9054906101000a900463ffffffff168460010160109054906101000a900461ffff16600360008e815260200190815260200160002060009054906101000a900473ffffffffffffffffffffffffffffffffffffffff169650965096509650965096505091939550919395565b6000809054906101000a900473ffffffffffffffffffffffffffffffffffffffff1681565b60606040518060400160405280600381526020017f444f470000000000000000000000000000000000000000000000000000000000815250905090565b3373ffffffffffffffffffffffffffffffffffffffff168273ffffffffffffffffffffffffffffffffffffffff16141561171957600080fd5b61172382826124ac565b5050565b600073ffffffffffffffffffffffffffffffffffffffff168273ffffffffffffffffffffffffffffffffffffffff1614156117ad576040517f08c379a00000000000000000000000000000000000000000000000000000000081526004018080602001828103825260288152602001806129f16028913960400191505060405180910390fd5b3073ffffffffffffffffffffffffffffffffffffffff168273ffffffffffffffffffffffffffffffffffffffff161415611832576040517f08c379a000000000000000000000000000000000000000000000000000000000815260040180806020018281038252602c815260200180612a9c602c913960400191505060405180910390fd5b3373ffffffffffffffffffffffffffffffffffffffff166003600083815260200190815260200160002060009054906101000a900473ffffffffffffffffffffffffffffffffffffffff1673ffffffffffffffffffffffffffffffffffffffff1614611906576040517f08c379a000000000000000000000000000000000000000000000000000000000815260040180806020018281038252601a8152602001807f596f7520646f206e6f74206f776e207468697320746f6b656e2100000000000081525060200191505060405180910390fd5b6119113383836122f0565b5050565b6003600083815260200190815260200160002060009054906101000a900473ffffffffffffffffffffffffffffffffffffffff1673ffffffffffffffffffffffffffffffffffffffff163373ffffffffffffffffffffffffffffffffffffffff161480611a0f575060011515600560008673ffffffffffffffffffffffffffffffffffffffff1673ffffffffffffffffffffffffffffffffffffffff16815260200190815260200160002060003373ffffffffffffffffffffffffffffffffffffffff1673ffffffffffffffffffffffffffffffffffffffff16815260200190815260200160002060009054906101000a900460ff161515145b80611a7857506004600083815260200190815260200160002060009054906101000a900473ffffffffffffffffffffffffffffffffffffffff1673ffffffffffffffffffffffffffffffffffffffff163373ffffffffffffffffffffffffffffffffffffffff16145b611acd576040517f08c379a000000000000000000000000000000000000000000000000000000000815260040180806020018281038252602b8152602001806129c6602b913960400191505060405180910390fd5b6003600083815260200190815260200160002060009054906101000a900473ffffffffffffffffffffffffffffffffffffffff1673ffffffffffffffffffffffffffffffffffffffff168473ffffffffffffffffffffffffffffffffffffffff1614611b84576040517f08c379a000000000000000000000000000000000000000000000000000000000815260040180806020018281038252602b815260200180612a3e602b913960400191505060405180910390fd5b600073ffffffffffffffffffffffffffffffffffffffff168373ffffffffffffffffffffffffffffffffffffffff161415611c0a576040517f08c379a0000000000000000000000000000000000000000000000000000000008152600401808060200182810382526033815260200180612a696033913960400191505060405180910390fd5b6001805490508210611c84576040517f08c379a000000000000000000000000000000000000000000000000000000000815260040180806020018281038252601a8152602001807f5468697320746f6b656e20646f6573206e6f742065786973742100000000000081525060200191505060405180910390fd5b611c90848484846125ad565b50505050565b6000600180549050905090565b60006003600084815260200190815260200160002060009054906101000a900473ffffffffffffffffffffffffffffffffffffffff1673ffffffffffffffffffffffffffffffffffffffff163373ffffffffffffffffffffffffffffffffffffffff16148015611d7157506003600083815260200190815260200160002060009054906101000a900473ffffffffffffffffffffffffffffffffffffffff1673ffffffffffffffffffffffffffffffffffffffff163373ffffffffffffffffffffffffffffffffffffffff16145b611dc6576040517f08c379a0000000000000000000000000000000000000000000000000000000008152600401808060200182810382526025815260200180612a196025913960400191505060405180910390fd5b600060018481548110611dd557fe5b9060005260206000209060020201600001549050600060018481548110611df857fe5b90600052602060002090600202016000015490506000611e1883836125d3565b9050600060018681548110611e2957fe5b906000526020600020906002020160010160109054906101000a900461ffff1661ffff1660018881548110611e5a57fe5b906000526020600020906002020160010160109054906101000a900461ffff1661ffff1610611eda5760018781548110611e9057fe5b9060005260206000209060020201600101601081819054906101000a900461ffff168092919060010191906101000a81548161ffff021916908361ffff1602179055509050611f2d565b60018681548110611ee757fe5b9060005260206000209060020201600101601081819054906101000a900461ffff168092919060010191906101000a81548161ffff021916908361ffff16021790555090505b611f3e86888361ffff168533612126565b505050505092915050565b60046020528060005260406000206000915054906101000a900473ffffffffffffffffffffffffffffffffffffffff1681565b6000600560008473ffffffffffffffffffffffffffffffffffffffff1673ffffffffffffffffffffffffffffffffffffffff16815260200190815260200160002060008373ffffffffffffffffffffffffffffffffffffffff1673ffffffffffffffffffffffffffffffffffffffff16815260200190815260200160002060009054906101000a900460ff16905092915050565b6000809054906101000a900473ffffffffffffffffffffffffffffffffffffffff1673ffffffffffffffffffffffffffffffffffffffff163373ffffffffffffffffffffffffffffffffffffffff161461206957600080fd5b6120728161262e565b50565b816004600083815260200190815260200160002060006101000a81548173ffffffffffffffffffffffffffffffffffffffff021916908373ffffffffffffffffffffffffffffffffffffffff160217905550808273ffffffffffffffffffffffffffffffffffffffff163373ffffffffffffffffffffffffffffffffffffffff167f8c5be1e5ebec7d5bd14f71427d1e84f3dd0314c0f7b2291e5b200ac8c7c3b92560405160405180910390a45050565b6000612130612923565b6040518060a001604052808581526020014267ffffffffffffffff1681526020018863ffffffff1681526020018763ffffffff1681526020018661ffff168152509050600060018083908060018154018082558091505090600182039060005260206000209060020201600090919290919091506000820151816000015560208201518160010160006101000a81548167ffffffffffffffff021916908367ffffffffffffffff16021790555060408201518160010160086101000a81548163ffffffff021916908363ffffffff160217905550606082015181600101600c6101000a81548163ffffffff021916908363ffffffff16021790555060808201518160010160106101000a81548161ffff021916908361ffff16021790555050500390507f0a5311bd2a6608f08a180df2ee7c5946819a649b204b554bb8e39825b2c50ad584828a8a89604051808673ffffffffffffffffffffffffffffffffffffffff1673ffffffffffffffffffffffffffffffffffffffff1681526020018581526020018481526020018381526020018281526020019550505050505060405180910390a16122e2600085836122f0565b809250505095945050505050565b600260008373ffffffffffffffffffffffffffffffffffffffff1673ffffffffffffffffffffffffffffffffffffffff16815260200190815260200160002060008154809291906001019190505550816003600083815260200190815260200160002060006101000a81548173ffffffffffffffffffffffffffffffffffffffff021916908373ffffffffffffffffffffffffffffffffffffffff160217905550600073ffffffffffffffffffffffffffffffffffffffff168373ffffffffffffffffffffffffffffffffffffffff161461244c57600260008473ffffffffffffffffffffffffffffffffffffffff1673ffffffffffffffffffffffffffffffffffffffff16815260200190815260200160002060008154809291906001900391905055506004600082815260200190815260200160002060006101000a81549073ffffffffffffffffffffffffffffffffffffffff02191690555b808273ffffffffffffffffffffffffffffffffffffffff163373ffffffffffffffffffffffffffffffffffffffff167fddf252ad1be2c89b69c2b068fc378daa952ba7f163c4a11628f55a4df523b3ef60405160405180910390a4505050565b80600560003373ffffffffffffffffffffffffffffffffffffffff1673ffffffffffffffffffffffffffffffffffffffff16815260200190815260200160002060008473ffffffffffffffffffffffffffffffffffffffff1673ffffffffffffffffffffffffffffffffffffffff16815260200190815260200160002060006101000a81548160ff0219169083151502179055508173ffffffffffffffffffffffffffffffffffffffff163373ffffffffffffffffffffffffffffffffffffffff167f17307eab39ab6107e8899845ad3d59bd9653f200f220920489ca2b5937696c3183604051808215151515815260200191505060405180910390a35050565b6125b88484846122f0565b6125c484848484612726565b6125cd57600080fd5b50505050565b600080620186a084816125e257fe5b0490506000612710600a85816125f457fe5b04816125fc57fe5b069050600060028284018161260d57fe5b069050600081600a8402620186a08602010190508094505050505092915050565b600073ffffffffffffffffffffffffffffffffffffffff168173ffffffffffffffffffffffffffffffffffffffff16141561266857600080fd5b8073ffffffffffffffffffffffffffffffffffffffff166000809054906101000a900473ffffffffffffffffffffffffffffffffffffffff1673ffffffffffffffffffffffffffffffffffffffff167f8be0079c531659141344cd1fd0a4f28419497f9722a3daafe3b4186f6b6457e060405160405180910390a3806000806101000a81548173ffffffffffffffffffffffffffffffffffffffff021916908373ffffffffffffffffffffffffffffffffffffffff16021790555050565b60006127318461290a565b61273e5760019050612902565b60008473ffffffffffffffffffffffffffffffffffffffff1663150b7a02338887876040518563ffffffff1660e01b8152600401808573ffffffffffffffffffffffffffffffffffffffff1673ffffffffffffffffffffffffffffffffffffffff1681526020018473ffffffffffffffffffffffffffffffffffffffff1673ffffffffffffffffffffffffffffffffffffffff16815260200183815260200180602001828103825283818151815260200191508051906020019080838360005b838110156128195780820151818401526020810190506127fe565b50505050905090810190601f1680156128465780820380516001836020036101000a031916815260200191505b5095505050505050602060405180830381600087803b15801561286857600080fd5b505af115801561287c573d6000803e3d6000fd5b505050506040513d602081101561289257600080fd5b81019080805190602001909291905050509050604051808061296d602f9139602f01905060405180910390207bffffffffffffffffffffffffffffffffffffffffffffffffffffffff1916817bffffffffffffffffffffffffffffffffffffffffffffffffffffffff1916149150505b949350505050565b600080823b905060008163ffffffff1611915050919050565b6040518060a0016040528060008152602001600067ffffffffffffffff168152602001600063ffffffff168152602001600063ffffffff168152602001600061ffff168152509056fe6f6e455243373231526563656976656428616464726573732c616464726573732c75696e743235362c627974657329596f7520617265206e6f7420616c6c6f77656420746f20617070726f7665207468697320746f6b656e21596f7520617265206e6f7420616c6c6f77656420746f207472616e73666572207468697320746f6b656e215468652072656365697665722063616e6e6f7420626520746865207a65726f206164647265737321596f7520617265206e6f7420746865206f776e6572206f662074686520706172656e74732146726f6d20706172616d6574206973206e6f7420746865206f776e6572206f662074686520746f6b656e215472616e7366657220636f756c64206e6f7420626520646972656374656420746f20746865207a65726f2061646472657373215468652072656365697665722063616e6e6f742062652074686520636f6e7472616374206164647265737321a265627a7a723158201cef03e8507829b39393fe8821d25cbc46e04a06bc256a9f089d7cfdd58f5b5a64736f6c63430005110032",
  "source": "//SPDX-License-Identifier: GPL-3.0\r\n\r\npragma solidity ^0.5.12;\r\n\r\nimport \"./IERC721.sol\";\r\nimport \"./IERC721Receiver.sol\";\r\nimport \"./Ownable.sol\";\r\n\r\ncontract DoggyContract is IERC721, Ownable {\r\n    string public constant tokenName = \"Doggies\";\r\n    string public constant tokenSymbol = \"DOG\";\r\n    uint32 CREATION_LIMIT_GEN0 = 10;\r\n\r\n    bytes4 internal constant MAGIC_ERC721_RECEIVED =\r\n        bytes4(keccak256(\"onERC721Received(address,address,uint256,bytes)\"));\r\n\r\n    bytes4 private constant _INTERFACE_ID_ERC165 = 0x01ffc9a7;\r\n    bytes4 private constant _INTERFACE_ID_ERC721 = 0x80ac58cd;\r\n\r\n    event Birth(\r\n        address owner,\r\n        uint256 doggyId,\r\n        uint256 mumId,\r\n        uint256 dadId,\r\n        uint256 genes\r\n    );\r\n\r\n    struct Doggy {\r\n        uint256 genes;\r\n        uint64 birthTime;\r\n        uint32 mumId;\r\n        uint32 dadId;\r\n        uint16 generation;\r\n    }\r\n\r\n    Doggy[] doggies;\r\n\r\n    mapping(address => uint256) tokenCount;\r\n    mapping(uint256 => address) tokenOwner;\r\n    mapping(uint256 => address) public doggyIndexToApproved;\r\n    mapping(address => mapping(address => bool)) private _operatorApprovals;\r\n\r\n    uint256 gen0Counter;\r\n\r\n    function supportsInterface(bytes4 _interfaceId)\r\n        external\r\n        pure\r\n        returns (bool)\r\n    {\r\n        return (_interfaceId == _INTERFACE_ID_ERC721 ||\r\n            _interfaceId == _INTERFACE_ID_ERC165);\r\n    }\r\n\r\n    function breed(uint256 _dadId, uint256 _mumId) public returns (uint256) {\r\n        require(\r\n            msg.sender == tokenOwner[_dadId] &&\r\n                msg.sender == tokenOwner[_mumId],\r\n            \"You are not the owner of the parents!\"\r\n        );\r\n        uint256 dadDna = doggies[_dadId].genes;\r\n        uint256 mumDna = doggies[_mumId].genes;\r\n        uint256 newDna = _mixDna(dadDna, mumDna);\r\n        uint16 newGeneration;\r\n\r\n        if (doggies[_dadId].generation >= doggies[_mumId].generation) {\r\n            newGeneration = doggies[_dadId].generation++;\r\n        } else {\r\n            newGeneration = doggies[_mumId].generation++;\r\n        }\r\n\r\n        _createDoggy(_mumId, _dadId, newGeneration, newDna, msg.sender);\r\n    }\r\n\r\n    function createDoggyGen0(uint256 _genes)\r\n        public\r\n        onlyOwner\r\n        returns (uint256)\r\n    {\r\n        require(gen0Counter < CREATION_LIMIT_GEN0);\r\n\r\n        gen0Counter++;\r\n\r\n        return _createDoggy(0, 0, 0, _genes, msg.sender);\r\n    }\r\n\r\n    function _createDoggy(\r\n        uint256 _mumId,\r\n        uint256 _dadId,\r\n        uint256 _generation,\r\n        uint256 _genes,\r\n        address _owner\r\n    ) internal returns (uint256) {\r\n        Doggy memory _doggy = Doggy({\r\n            genes: _genes,\r\n            birthTime: uint64(now),\r\n            mumId: uint32(_mumId),\r\n            dadId: uint32(_dadId),\r\n            generation: uint16(_generation)\r\n        });\r\n\r\n        uint256 newDoggyId = doggies.push(_doggy) - 1;\r\n\r\n        emit Birth(_owner, newDoggyId, _mumId, _dadId, _genes);\r\n\r\n        _transfer(address(0), _owner, newDoggyId);\r\n\r\n        return newDoggyId;\r\n    }\r\n\r\n    function countDoggies() external view returns (uint256) {\r\n        return doggies.length;\r\n    }\r\n\r\n    function balanceOf(address owner) external view returns (uint256 balance) {\r\n        return tokenCount[owner];\r\n    }\r\n\r\n    function totalSupply() external view returns (uint256 total) {\r\n        return doggies.length;\r\n    }\r\n\r\n    function name() external view returns (string memory) {\r\n        return tokenName;\r\n    }\r\n\r\n    function symbol() external view returns (string memory) {\r\n        return tokenSymbol;\r\n    }\r\n\r\n    function ownerOf(uint256 tokenId) external view returns (address owner) {\r\n        require(\r\n            tokenOwner[tokenId] != address(0),\r\n            \"This token does not exist!\"\r\n        );\r\n        return tokenOwner[tokenId];\r\n    }\r\n\r\n    function getDoggy(uint256 tokenId)\r\n        external\r\n        view\r\n        returns (\r\n            uint256,\r\n            uint64,\r\n            uint32,\r\n            uint32,\r\n            uint16,\r\n            address owner\r\n        )\r\n    {\r\n        Doggy storage doggy = doggies[tokenId];\r\n        return (\r\n            doggy.genes,\r\n            doggy.birthTime,\r\n            doggy.mumId,\r\n            doggy.dadId,\r\n            doggy.generation,\r\n            tokenOwner[tokenId]\r\n        );\r\n    }\r\n\r\n    function transfer(address to, uint256 tokenId) external {\r\n        require(to != address(0), \"The receiver cannot be the zero address!\");\r\n        require(\r\n            to != address(this),\r\n            \"The receiver cannot be the contract address!\"\r\n        );\r\n        require(\r\n            tokenOwner[tokenId] == msg.sender,\r\n            \"You do not own this token!\"\r\n        );\r\n\r\n        _transfer(msg.sender, to, tokenId);\r\n    }\r\n\r\n    function transferFrom(\r\n        address from,\r\n        address to,\r\n        uint256 tokenId\r\n    ) external {\r\n        require(\r\n            msg.sender == tokenOwner[tokenId] ||\r\n                _operatorApprovals[from][msg.sender] == true ||\r\n                msg.sender == doggyIndexToApproved[tokenId],\r\n            \"You are not allowed to transfer this token!\"\r\n        );\r\n        require(\r\n            from == tokenOwner[tokenId],\r\n            \"From paramet is not the owner of the token!\"\r\n        );\r\n        require(\r\n            to != address(0),\r\n            \"Transfer could not be directed to the zero address!\"\r\n        );\r\n        require(tokenId < doggies.length, \"This token does not exist!\");\r\n\r\n        _transfer(from, to, tokenId);\r\n    }\r\n\r\n    function safeTransferFrom(\r\n        address from,\r\n        address to,\r\n        uint256 tokenId\r\n    ) external {\r\n        safeTransferFrom(from, to, tokenId, \"\");\r\n    }\r\n\r\n    function safeTransferFrom(\r\n        address from,\r\n        address to,\r\n        uint256 tokenId,\r\n        bytes memory data\r\n    ) public {\r\n        require(\r\n            msg.sender == tokenOwner[tokenId] ||\r\n                _operatorApprovals[from][msg.sender] == true ||\r\n                msg.sender == doggyIndexToApproved[tokenId],\r\n            \"You are not allowed to transfer this token!\"\r\n        );\r\n        require(\r\n            from == tokenOwner[tokenId],\r\n            \"From paramet is not the owner of the token!\"\r\n        );\r\n        require(\r\n            to != address(0),\r\n            \"Transfer could not be directed to the zero address!\"\r\n        );\r\n        require(tokenId < doggies.length, \"This token does not exist!\");\r\n\r\n        _safeTransfer(from, to, tokenId, data);\r\n    }\r\n\r\n    function _transfer(\r\n        address _from,\r\n        address _to,\r\n        uint256 _tokenId\r\n    ) internal {\r\n        tokenCount[_to]++;\r\n        tokenOwner[_tokenId] = _to;\r\n\r\n        if (_from != address(0)) {\r\n            tokenCount[_from]--;\r\n            delete doggyIndexToApproved[_tokenId];\r\n        }\r\n\r\n        emit Transfer(msg.sender, _to, _tokenId);\r\n    }\r\n\r\n    function _safeTransfer(\r\n        address _from,\r\n        address _to,\r\n        uint256 _tokenId,\r\n        bytes memory _data\r\n    ) internal {\r\n        _transfer(_from, _to, _tokenId);\r\n\r\n        require(_checkERC721Support(_from, _to, _tokenId, _data));\r\n    }\r\n\r\n    function approve(address approved, uint256 tokenId) external {\r\n        require(\r\n            msg.sender == tokenOwner[tokenId] ||\r\n                msg.sender == doggyIndexToApproved[tokenId],\r\n            \"You are not allowed to approve this token!\"\r\n        );\r\n\r\n        _approve(approved, tokenId);\r\n    }\r\n\r\n    function _approve(address _approved, uint256 _tokenId) internal {\r\n        doggyIndexToApproved[_tokenId] = _approved;\r\n\r\n        emit Approval(msg.sender, _approved, _tokenId);\r\n    }\r\n\r\n    function setApprovalForAll(address operator, bool approved) external {\r\n        require(operator != msg.sender);\r\n\r\n        _setApprovalForAll(operator, approved);\r\n    }\r\n\r\n    function _setApprovalForAll(address _operator, bool _approved) internal {\r\n        _operatorApprovals[msg.sender][_operator] = _approved;\r\n\r\n        emit ApprovalForAll(msg.sender, _operator, _approved);\r\n    }\r\n\r\n    function getApproved(uint256 tokenId) external view returns (address) {\r\n        require(tokenId < doggies.length, \"This token does not exist!\");\r\n\r\n        return doggyIndexToApproved[tokenId];\r\n    }\r\n\r\n    function isApprovedForAll(address owner, address operator)\r\n        external\r\n        view\r\n        returns (bool)\r\n    {\r\n        return _operatorApprovals[owner][operator];\r\n    }\r\n\r\n    function _checkERC721Support(\r\n        address _from,\r\n        address _to,\r\n        uint256 _tokenId,\r\n        bytes memory _data\r\n    ) internal returns (bool) {\r\n        if (!_isContract(_to)) {\r\n            return true;\r\n        }\r\n\r\n        bytes4 returnData = IERC721Receiver(_to).onERC721Received(\r\n            msg.sender,\r\n            _from,\r\n            _tokenId,\r\n            _data\r\n        );\r\n        return returnData == MAGIC_ERC721_RECEIVED;\r\n    }\r\n\r\n    function _isContract(address _to) internal view returns (bool) {\r\n        uint32 size;\r\n        assembly {\r\n            size := extcodesize(_to)\r\n        }\r\n        return size > 0;\r\n    }\r\n\r\n    function _mixDna(uint256 _dadDna, uint256 _mumDna)\r\n        internal\r\n        pure\r\n        returns (uint256)\r\n    {\r\n        uint256 firstHalf = _dadDna / 100000;\r\n        uint256 secondHalf = (_mumDna / 10) % 10000;\r\n        uint256 gender = (firstHalf + secondHalf) % 2;\r\n        uint256 resultDna = (firstHalf * 100000) + (secondHalf * 10) + gender;\r\n        return resultDna;\r\n    }\r\n\r\n    function _own(address claimant, uint256 tokenId)\r\n        external\r\n        view\r\n        returns (bool)\r\n    {\r\n        return tokenOwner[tokenId] == claimant;\r\n    }\r\n}\r\n",
  "sourcePath": "D:/Moralis/eth201/Doggies/doggies/contracts/Doggycontract.sol",
  "compiler": {
    "name": "solc",
    "version": "0.5.17+commit.d19bba13.Emscripten.clang"
  },
  "schemaVersion": "3.4.1",
  "updatedAt": "2022-01-18T19:21:06.569Z",
  "networkType": "ethereum",
  "devdoc": {
    "methods": {
      "renounceOwnership()": {
        "details": "Allows the current owner to relinquish control of the contract."
      },
      "transferOwnership(address)": {
        "details": "Allows the current owner to transfer control of the contract to a newOwner.",
        "params": {
          "_newOwner": "The address to transfer ownership to."
        }
      }
    }
  },
  "userdoc": {
    "methods": {
      "renounceOwnership()": {
        "notice": "Renouncing to ownership will leave the contract without an owner. It will not be possible to call the functions with the `onlyOwner` modifier anymore."
      }
    }
  }
}